{
  "address": "0x1b253851C4883f434A7d8a96b8A25de1441ff481",
  "abi": [
    {
      "inputs": [],
      "stateMutability": "payable",
      "type": "constructor"
    },
    {
      "inputs": [],
      "name": "NotEnoughEther",
      "type": "error"
    },
    {
      "anonymous": false,
      "inputs": [
        {
          "indexed": true,
          "internalType": "address",
          "name": "player",
          "type": "address"
        },
        {
          "indexed": false,
          "internalType": "uint256",
          "name": "amount",
          "type": "uint256"
        },
        {
          "indexed": false,
          "internalType": "uint256",
          "name": "roll",
          "type": "uint256"
        }
      ],
      "name": "Roll",
      "type": "event"
    },
    {
      "anonymous": false,
      "inputs": [
        {
          "indexed": false,
          "internalType": "address",
          "name": "winner",
          "type": "address"
        },
        {
          "indexed": false,
          "internalType": "uint256",
          "name": "amount",
          "type": "uint256"
        }
      ],
      "name": "Winner",
      "type": "event"
    },
    {
      "inputs": [],
      "name": "nonce",
      "outputs": [
        {
          "internalType": "uint256",
          "name": "",
          "type": "uint256"
        }
      ],
      "stateMutability": "view",
      "type": "function"
    },
    {
      "inputs": [],
      "name": "prize",
      "outputs": [
        {
          "internalType": "uint256",
          "name": "",
          "type": "uint256"
        }
      ],
      "stateMutability": "view",
      "type": "function"
    },
    {
      "inputs": [],
      "name": "rollTheDice",
      "outputs": [],
      "stateMutability": "payable",
      "type": "function"
    },
    {
      "stateMutability": "payable",
      "type": "receive"
    }
  ],
  "transactionHash": "0x9b8d9cb140155219e4ced21253afde187d39defde9d5c4f0ebc9756f35dc8e27",
  "args": [],
  "numDeployments": 1,
  "solcInputHash": "db33aa1712e8c0978353812657c2b941",
  "bytecode": "0x60806040526000808055600155610014610019565b610082565b606461002647600a610035565b6100309190610060565b600155565b808202811582820484141761005a57634e487b7160e01b600052601160045260246000fd5b92915050565b60008261007d57634e487b7160e01b600052601260045260246000fd5b500490565b610674806100916000396000f3fe6080604052600436106100385760003560e01c80637d789dee14610044578063affed0e01461004e578063e3ac5d261461007657600080fd5b3661003f57005b600080fd5b61004c61008c565b005b34801561005a57600080fd5b5061006460005481565b60405190815260200160405180910390f35b34801561008257600080fd5b5061006460015481565b66071afd498d00003410156100b457604051638a0d377960e01b815260040160405180910390fd5b60006100c16001436104ea565b409050600081306000546040516020016101009392919092835260609190911b6bffffffffffffffffffffffff19166020830152603482015260540190565b60408051601f19818403018152919052805160209091012090506000610127601083610519565b9050610184604051806040016040528060018152602001600960f81b8152506040518060400160405280601c81526020017f2020204f726967696e616c20446963652047616d65206e6f6e63653a000000008152506000546103f8565b6101dd604051806040016040528060018152602001600960f81b8152506040518060400160405280601c81526020017f2020204f726967696e616c20446963652047616d6520426c6f636b3a00000000815250436103f8565b610236604051806040016040528060018152602001600960f81b8152506040518060400160405280601e81526020017f2020204f726967696e616c20446963652047616d6520616464726573733a000081525030610444565b61028f604051806040016040528060018152602001600960f81b8152506040518060400160405280601b81526020017f2020204f726967696e616c20446963652047616d6520526f6c6c3a0000000000815250836103f8565b60008054908061029e8361052d565b90915550606490506102b1346028610546565b6102bb919061055d565b600160008282546102cc9190610571565b9091555050604080513481526020810183905233917f61cfee61b80d296eb67d23740a2278ba7f3d857fe9aa27f1ed9fe4882e254360910160405180910390a2600581111561031a57505050565b600154604051600090339083908381818185875af1925050503d806000811461035f576040519150601f19603f3d011682016040523d82523d6000602084013e610364565b606091505b50509050806103b05760405162461bcd60e51b81526020600482015260146024820152732330b4b632b2103a379039b2b7321022ba3432b960611b604482015260640160405180910390fd5b6103b861048b565b60408051338152602081018490527f9c2270628a9b29d30ae96b6c4c14ed646ee134febdce38a5b77f2bde9cea2e20910160405180910390a15050505050565b61043f838383604051602401610410939291906105ca565b60408051601f198184030181529190526020810180516001600160e01b0316635821efa160e01b1790526104a7565b505050565b61043f83838360405160240161045c93929190610600565b60408051601f198184030181529190526020810180516001600160e01b03166395ed019560e01b1790526104a7565b606461049847600a610546565b6104a2919061055d565b600155565b6104b0816104b3565b50565b60006a636f6e736f6c652e6c6f679050600080835160208501845afa505050565b634e487b7160e01b600052601160045260246000fd5b818103818111156104fd576104fd6104d4565b92915050565b634e487b7160e01b600052601260045260246000fd5b60008261052857610528610503565b500690565b60006001820161053f5761053f6104d4565b5060010190565b80820281158282048414176104fd576104fd6104d4565b60008261056c5761056c610503565b500490565b808201808211156104fd576104fd6104d4565b6000815180845260005b818110156105aa5760208185018101518683018201520161058e565b506000602082860101526020601f19601f83011685010191505092915050565b6060815260006105dd6060830186610584565b82810360208401526105ef8186610584565b915050826040830152949350505050565b6060815260006106136060830186610584565b82810360208401526106258186610584565b91505060018060a01b038316604083015294935050505056fea2646970667358221220e247d690e14dccda88b4b205109f95e94d9cf22ec610d2370aad21329c37ae6564736f6c63430008110033",
  "devdoc": {
    "kind": "dev",
    "methods": {},
    "version": 1
  },
  "userdoc": {
    "kind": "user",
    "methods": {},
    "version": 1
  },
  "storageLayout": {
    "storage": [
      {
        "astId": 140,
        "contract": "contracts/DiceGame.sol:DiceGame",
        "label": "nonce",
        "offset": 0,
        "slot": "0",
        "type": "t_uint256"
      },
      {
        "astId": 143,
        "contract": "contracts/DiceGame.sol:DiceGame",
        "label": "prize",
        "offset": 0,
        "slot": "1",
        "type": "t_uint256"
      }
    ],
    "types": {
      "t_uint256": {
        "encoding": "inplace",
        "label": "uint256",
        "numberOfBytes": "32"
      }
    }
  }
}